{
  "contractName": "Game",
  "abi": [
    {
      "constant": true,
      "inputs": [],
      "name": "gameName",
      "outputs": [
        {
          "name": "",
          "type": "string"
        }
      ],
      "payable": false,
      "stateMutability": "view",
      "type": "function"
    },
    {
      "constant": true,
      "inputs": [
        {
          "name": "",
          "type": "address"
        }
      ],
      "name": "playerScore",
      "outputs": [
        {
          "name": "",
          "type": "uint256"
        }
      ],
      "payable": false,
      "stateMutability": "view",
      "type": "function"
    },
    {
      "constant": true,
      "inputs": [
        {
          "name": "",
          "type": "address"
        }
      ],
      "name": "registered",
      "outputs": [
        {
          "name": "",
          "type": "bool"
        }
      ],
      "payable": false,
      "stateMutability": "view",
      "type": "function"
    },
    {
      "constant": true,
      "inputs": [
        {
          "name": "",
          "type": "address"
        },
        {
          "name": "",
          "type": "uint256"
        }
      ],
      "name": "achievements",
      "outputs": [
        {
          "name": "",
          "type": "string"
        }
      ],
      "payable": false,
      "stateMutability": "view",
      "type": "function"
    },
    {
      "inputs": [
        {
          "name": "name",
          "type": "string"
        }
      ],
      "payable": false,
      "stateMutability": "nonpayable",
      "type": "constructor"
    },
    {
      "constant": true,
      "inputs": [
        {
          "name": "player",
          "type": "address"
        }
      ],
      "name": "isRegistered",
      "outputs": [
        {
          "name": "",
          "type": "bool"
        }
      ],
      "payable": false,
      "stateMutability": "view",
      "type": "function"
    },
    {
      "constant": false,
      "inputs": [
        {
          "name": "player",
          "type": "address"
        }
      ],
      "name": "register",
      "outputs": [],
      "payable": false,
      "stateMutability": "nonpayable",
      "type": "function"
    },
    {
      "constant": false,
      "inputs": [
        {
          "name": "player",
          "type": "address"
        },
        {
          "name": "score",
          "type": "uint256"
        },
        {
          "name": "achievement",
          "type": "string"
        }
      ],
      "name": "finalisePlayerStatus",
      "outputs": [],
      "payable": false,
      "stateMutability": "nonpayable",
      "type": "function"
    },
    {
      "constant": false,
      "inputs": [
        {
          "name": "player",
          "type": "address"
        },
        {
          "name": "score",
          "type": "uint256"
        }
      ],
      "name": "updatePlayerScore",
      "outputs": [],
      "payable": false,
      "stateMutability": "nonpayable",
      "type": "function"
    },
    {
      "constant": false,
      "inputs": [
        {
          "name": "player",
          "type": "address"
        },
        {
          "name": "achievement",
          "type": "string"
        }
      ],
      "name": "updatePlayerAchievements",
      "outputs": [],
      "payable": false,
      "stateMutability": "nonpayable",
      "type": "function"
    },
    {
      "constant": true,
      "inputs": [
        {
          "name": "player",
          "type": "address"
        }
      ],
      "name": "getScore",
      "outputs": [
        {
          "name": "",
          "type": "uint256"
        }
      ],
      "payable": false,
      "stateMutability": "view",
      "type": "function"
    }
  ],
  "bytecode": "0x608060405234801561001057600080fd5b5060405161089d38038061089d83398101604052805101805161003a906000906020840190610041565b50506100dc565b828054600181600116156101000203166002900490600052602060002090601f016020900481019282601f1061008257805160ff19168380011785556100af565b828001600101855582156100af579182015b828111156100af578251825591602001919060010190610094565b506100bb9291506100bf565b5090565b6100d991905b808211156100bb57600081556001016100c5565b90565b6107b2806100eb6000396000f3006080604052600436106100a35763ffffffff7c01000000000000000000000000000000000000000000000000000000006000350416634420e48681146100a8578063473bc223146100d85780636f0d50f01461016257806382b813dc146101d657806393f5b241146102165780639a11ded014610247578063b2dd5c07146102bd578063bf882e73146102ff578063c3c5a54714610330578063d47875d01461035e575b600080fd5b3480156100b457600080fd5b506100d673ffffffffffffffffffffffffffffffffffffffff6004351661038c565b005b3480156100e457600080fd5b506100ed6103ee565b6040805160208082528351818301528351919283929083019185019080838360005b8381101561012757818101518382015260200161010f565b50505050905090810190601f1680156101545780820380516001836020036101000a031916815260200191505b509250505060405180910390f35b34801561016e57600080fd5b5060408051602060046024803582810135601f81018590048502860185019096528585526100d695833573ffffffffffffffffffffffffffffffffffffffff1695369560449491939091019190819084018382808284375094975061049a9650505050505050565b3480156101e257600080fd5b5061020473ffffffffffffffffffffffffffffffffffffffff60043516610502565b60408051918252519081900360200190f35b34801561022257600080fd5b506100d673ffffffffffffffffffffffffffffffffffffffff60043516602435610514565b34801561025357600080fd5b50604080516020600460443581810135601f81018490048402850184019095528484526100d694823573ffffffffffffffffffffffffffffffffffffffff169460248035953695946064949201919081908401838280828437509497506105549650505050505050565b3480156102c957600080fd5b506102eb73ffffffffffffffffffffffffffffffffffffffff600435166105e2565b604080519115158252519081900360200190f35b34801561030b57600080fd5b506100ed73ffffffffffffffffffffffffffffffffffffffff600435166024356105f7565b34801561033c57600080fd5b506102eb73ffffffffffffffffffffffffffffffffffffffff60043516610698565b34801561036a57600080fd5b5061020473ffffffffffffffffffffffffffffffffffffffff600435166106c3565b61039581610698565b1561039f57600080fd5b73ffffffffffffffffffffffffffffffffffffffff16600090815260026020526040902080547fffffffffffffffffffffffffffffffffffffffffffffffffffffffffffffff00166001179055565b6000805460408051602060026001851615610100027fffffffffffffffffffffffffffffffffffffffffffffffffffffffffffffffff0190941693909304601f810184900484028201840190925281815292918301828280156104925780601f1061046757610100808354040283529160200191610492565b820191906000526020600020905b81548152906001019060200180831161047557829003601f168201915b505050505081565b6104a382610698565b15156001146104b157600080fd5b73ffffffffffffffffffffffffffffffffffffffff82166000908152600360209081526040822080546001810180835591845292829020845191936104fc93910191908501906106eb565b50505050565b60016020526000908152604090205481565b61051d82610698565b151560011461052b57600080fd5b73ffffffffffffffffffffffffffffffffffffffff909116600090815260016020526040902055565b61055d83610698565b151560011461056b57600080fd5b73ffffffffffffffffffffffffffffffffffffffff83166000908152600360209081526040822080546001810180835591845292829020845191936105b693910191908501906106eb565b50505073ffffffffffffffffffffffffffffffffffffffff909116600090815260016020526040902055565b60026020526000908152604090205460ff1681565b60036020528160005260406000208181548110151561061257fe5b600091825260209182902001805460408051601f60027fffffffffffffffffffffffffffffffffffffffffffffffffffffffffffffffff61010060018716150201909416939093049283018590048502810185019091528181529450909250908301828280156104925780601f1061046757610100808354040283529160200191610492565b73ffffffffffffffffffffffffffffffffffffffff1660009081526002602052604090205460ff1690565b73ffffffffffffffffffffffffffffffffffffffff1660009081526001602052604090205490565b828054600181600116156101000203166002900490600052602060002090601f016020900481019282601f1061072c57805160ff1916838001178555610759565b82800160010185558215610759579182015b8281111561075957825182559160200191906001019061073e565b50610765929150610769565b5090565b61078391905b80821115610765576000815560010161076f565b905600a165627a7a72305820e50ccf8c9a0494cbdcf598e5690754b45083dfa19f57594054039e8ce740a94c0029",
  "source": "pragma solidity ^0.4.20;\n\nimport \"./ERC721.sol\";\n\ncontract Game {\n\n  string public gameName;\n  mapping(address => uint) public playerScore;\n  mapping(address => bool) public registered;\n  mapping(address => string[]) public achievements;\n\n  constructor(string name) public {\n    gameName = name;\n  }\n\n  function isRegistered(address player) public view returns (bool){\n    return registered[player];\n  }\n\n  function register(address player) public {\n    require(isRegistered(player) == false);\n    registered[player] = true;\n  }\n\n  function finalisePlayerStatus(address player, uint score, string achievement) public {\n    require(isRegistered(player) == true);\n    achievements[player].push(achievement);\n    playerScore[player] = score;\n  }\n\n  function updatePlayerScore(address player, uint score) public {\n    require(isRegistered(player) == true);\n    playerScore[player] = score;\n  }\n\n  function updatePlayerAchievements(address player, string achievement) public {\n    require(isRegistered(player) == true);\n    achievements[player].push(achievement);\n  }\n\n  function getScore(address player) public view returns (uint) {\n      return playerScore[player];\n  }\n}",
  "sourcePath": "/home/tomisin/Documents/projects/Hackathons/Shyft/sharkshift/ethereum/contracts/Game.sol",
  "compiler": {
    "name": "solc",
    "version": "0.4.24+commit.e67f0147.Emscripten.clang"
  },
  "schemaVersion": "2.0.1",
  "updatedAt": "2018-09-11T20:41:10.576Z"
}