{
  "contractName": "Game",
  "abi": [
    {
      "constant": true,
      "inputs": [],
      "name": "gameName",
      "outputs": [
        {
          "name": "",
          "type": "string"
        }
      ],
      "payable": false,
      "stateMutability": "view",
      "type": "function"
    },
    {
      "constant": true,
      "inputs": [
        {
          "name": "",
          "type": "address"
        }
      ],
      "name": "playerScore",
      "outputs": [
        {
          "name": "",
          "type": "uint256"
        }
      ],
      "payable": false,
      "stateMutability": "view",
      "type": "function"
    },
    {
      "constant": true,
      "inputs": [
        {
          "name": "",
          "type": "address"
        }
      ],
      "name": "registered",
      "outputs": [
        {
          "name": "",
          "type": "bool"
        }
      ],
      "payable": false,
      "stateMutability": "view",
      "type": "function"
    },
    {
      "constant": true,
      "inputs": [
        {
          "name": "",
          "type": "address"
        },
        {
          "name": "",
          "type": "uint256"
        }
      ],
      "name": "achievements",
      "outputs": [
        {
          "name": "",
          "type": "string"
        }
      ],
      "payable": false,
      "stateMutability": "view",
      "type": "function"
    },
    {
      "inputs": [
        {
          "name": "name",
          "type": "string"
        }
      ],
      "payable": false,
      "stateMutability": "nonpayable",
      "type": "constructor"
    },
    {
      "constant": true,
      "inputs": [
        {
          "name": "player",
          "type": "address"
        }
      ],
      "name": "isRegistered",
      "outputs": [
        {
          "name": "",
          "type": "bool"
        }
      ],
      "payable": false,
      "stateMutability": "view",
      "type": "function"
    },
    {
      "constant": false,
      "inputs": [
        {
          "name": "player",
          "type": "address"
        }
      ],
      "name": "register",
      "outputs": [],
      "payable": false,
      "stateMutability": "nonpayable",
      "type": "function"
    },
    {
      "constant": false,
      "inputs": [
        {
          "name": "player",
          "type": "address"
        },
        {
          "name": "score",
          "type": "uint256"
        },
        {
          "name": "achievement",
          "type": "string"
        }
      ],
      "name": "finalisePlayerStatus",
      "outputs": [],
      "payable": false,
      "stateMutability": "nonpayable",
      "type": "function"
    },
    {
      "constant": false,
      "inputs": [
        {
          "name": "player",
          "type": "address"
        },
        {
          "name": "score",
          "type": "uint256"
        }
      ],
      "name": "updatePlayerScore",
      "outputs": [],
      "payable": false,
      "stateMutability": "nonpayable",
      "type": "function"
    },
    {
      "constant": false,
      "inputs": [
        {
          "name": "player",
          "type": "address"
        },
        {
          "name": "achievement",
          "type": "string"
        }
      ],
      "name": "updatePlayerAchievements",
      "outputs": [],
      "payable": false,
      "stateMutability": "nonpayable",
      "type": "function"
    },
    {
      "constant": true,
      "inputs": [
        {
          "name": "player",
          "type": "address"
        }
      ],
      "name": "getScore",
      "outputs": [
        {
          "name": "",
          "type": "uint256"
        }
      ],
      "payable": false,
      "stateMutability": "view",
      "type": "function"
    },
    {
      "constant": true,
      "inputs": [
        {
          "name": "player",
          "type": "address"
        }
      ],
      "name": "getAchievements",
      "outputs": [
        {
          "name": "",
          "type": "string[]"
        }
      ],
      "payable": false,
      "stateMutability": "view",
      "type": "function"
    }
  ],
  "bytecode": "0x60806040523480156200001157600080fd5b5060405162000d2838038062000d28833981018060405262000037919081019062000155565b80516200004c90600090602084019062000054565b505062000217565b828054600181600116156101000203166002900490600052602060002090601f016020900481019282601f106200009757805160ff1916838001178555620000c7565b82800160010185558215620000c7579182015b82811115620000c7578251825591602001919060010190620000aa565b50620000d5929150620000d9565b5090565b620000f691905b80821115620000d55760008155600101620000e0565b90565b6000601f820183136200010b57600080fd5b8151620001226200011c82620001bc565b62000195565b915080825260208301602083018583830111156200013f57600080fd5b6200014c838284620001e4565b50505092915050565b6000602082840312156200016857600080fd5b81516001604060020a038111156200017f57600080fd5b6200018d84828501620000f9565b949350505050565b6040518181016001604060020a0381118282101715620001b457600080fd5b604052919050565b60006001604060020a03821115620001d357600080fd5b506020601f91909101601f19160190565b60005b8381101562000201578181015183820152602001620001e7565b8381111562000211576000848401525b50505050565b610b0180620002276000396000f3006080604052600436106100ae5763ffffffff7c01000000000000000000000000000000000000000000000000000000006000350416634420e48681146100b3578063473bc223146100d55780636f0d50f01461010057806382b813dc146101205780638ef578f61461014d57806393f5b2411461017a5780639a11ded01461019a578063b2dd5c07146101ba578063bf882e73146101e7578063c3c5a54714610207578063d47875d014610227575b600080fd5b3480156100bf57600080fd5b506100d36100ce3660046107cd565b610247565b005b3480156100e157600080fd5b506100ea6102a9565b6040516100f791906109b3565b60405180910390f35b34801561010c57600080fd5b506100d361011b3660046107f3565b610355565b34801561012c57600080fd5b5061014061013b3660046107cd565b6103bd565b6040516100f791906109c4565b34801561015957600080fd5b5061016d6101683660046107cd565b6103cf565b6040516100f7919061098e565b34801561018657600080fd5b506100d3610195366004610845565b6104e8565b3480156101a657600080fd5b506100d36101b5366004610875565b610528565b3480156101c657600080fd5b506101da6101d53660046107cd565b6105b6565b6040516100f7919061099f565b3480156101f357600080fd5b506100ea610202366004610845565b6105cb565b34801561021357600080fd5b506101da6102223660046107cd565b61066c565b34801561023357600080fd5b506101406102423660046107cd565b610697565b6102508161066c565b1561025a57600080fd5b73ffffffffffffffffffffffffffffffffffffffff16600090815260026020526040902080547fffffffffffffffffffffffffffffffffffffffffffffffffffffffffffffff00166001179055565b6000805460408051602060026001851615610100027fffffffffffffffffffffffffffffffffffffffffffffffffffffffffffffffff0190941693909304601f8101849004840282018401909252818152929183018282801561034d5780601f106103225761010080835404028352916020019161034d565b820191906000526020600020905b81548152906001019060200180831161033057829003601f168201915b505050505081565b61035e8261066c565b151560011461036c57600080fd5b73ffffffffffffffffffffffffffffffffffffffff82166000908152600360209081526040822080546001810180835591845292829020845191936103b793910191908501906106bf565b50505050565b60016020526000908152604090205481565b73ffffffffffffffffffffffffffffffffffffffff81166000908152600360209081526040808320805482518185028101850190935280835260609492939192909184015b828210156104dd5760008481526020908190208301805460408051601f60027fffffffffffffffffffffffffffffffffffffffffffffffffffffffffffffffff6101006001871615020190941693909304928301859004850281018501909152818152928301828280156104c95780601f1061049e576101008083540402835291602001916104c9565b820191906000526020600020905b8154815290600101906020018083116104ac57829003601f168201915b505050505081526020019060010190610414565b505050509050919050565b6104f18261066c565b15156001146104ff57600080fd5b73ffffffffffffffffffffffffffffffffffffffff909116600090815260016020526040902055565b6105318361066c565b151560011461053f57600080fd5b73ffffffffffffffffffffffffffffffffffffffff831660009081526003602090815260408220805460018101808355918452928290208451919361058a93910191908501906106bf565b50505073ffffffffffffffffffffffffffffffffffffffff909116600090815260016020526040902055565b60026020526000908152604090205460ff1681565b6003602052816000526040600020818154811015156105e657fe5b600091825260209182902001805460408051601f60027fffffffffffffffffffffffffffffffffffffffffffffffffffffffffffffffff610100600187161502019094169390930492830185900485028101850190915281815294509092509083018282801561034d5780601f106103225761010080835404028352916020019161034d565b73ffffffffffffffffffffffffffffffffffffffff1660009081526002602052604090205460ff1690565b73ffffffffffffffffffffffffffffffffffffffff1660009081526001602052604090205490565b828054600181600116156101000203166002900490600052602060002090601f016020900481019282601f1061070057805160ff191683800117855561072d565b8280016001018555821561072d579182015b8281111561072d578251825591602001919060010190610712565b5061073992915061073d565b5090565b61075791905b808211156107395760008155600101610743565b90565b60006107668235610a4e565b9392505050565b6000601f8201831361077e57600080fd5b813561079161078c826109f9565b6109d2565b915080825260208301602083018583830111156107ad57600080fd5b6107b8838284610a67565b50505092915050565b60006107668235610757565b6000602082840312156107df57600080fd5b60006107eb848461075a565b949350505050565b6000806040838503121561080657600080fd5b6000610812858561075a565b925050602083013567ffffffffffffffff81111561082f57600080fd5b61083b8582860161076d565b9150509250929050565b6000806040838503121561085857600080fd5b6000610864858561075a565b925050602061083b858286016107c1565b60008060006060848603121561088a57600080fd5b6000610896868661075a565b93505060206108a7868287016107c1565b925050604084013567ffffffffffffffff8111156108c457600080fd5b6108d08682870161076d565b9150509250925092565b60006108e582610a45565b808452602084019350836020820285016108fe85610a3f565b60005b84811015610935578383038852610919838351610950565b925061092482610a3f565b602098909801979150600101610901565b50909695505050505050565b61094a81610a49565b82525050565b600061095b82610a45565b80845261096f816020860160208601610a73565b61097881610a9f565b9093016020019392505050565b61094a81610757565b6020808252810161076681846108da565b602081016109ad8284610941565b92915050565b602080825281016107668184610950565b602081016109ad8284610985565b60405181810167ffffffffffffffff811182821017156109f157600080fd5b604052919050565b600067ffffffffffffffff821115610a1057600080fd5b506020601f919091017fffffffffffffffffffffffffffffffffffffffffffffffffffffffffffffffe0160190565b60200190565b5190565b151590565b73ffffffffffffffffffffffffffffffffffffffff1690565b82818337506000910152565b60005b83811015610a8e578181015183820152602001610a76565b838111156103b75750506000910152565b601f017fffffffffffffffffffffffffffffffffffffffffffffffffffffffffffffffe016905600a265627a7a72305820aade7d5f8ccfd8b9482a42df1baafff049ad6a6d1ce7c41380df1340d717644e6c6578706572696d656e74616cf50037",
  "source": "// pragma solidity ^0.4.20;\npragma experimental ABIEncoderV2;\n\nimport \"./ERC721.sol\";\n\ncontract Game {\n\n  string public gameName;\n  mapping(address => uint) public playerScore;\n  mapping(address => bool) public registered;\n  mapping(address => string[]) public achievements;\n\n  constructor(string name) public {\n    gameName = name;\n  }\n\n  function isRegistered(address player) public view returns (bool){\n    return registered[player];\n  }\n\n  function register(address player) public {\n    require(isRegistered(player) == false);\n    registered[player] = true;\n  }\n\n  function finalisePlayerStatus(address player, uint score, string achievement) public {\n    require(isRegistered(player) == true);\n    achievements[player].push(achievement);\n    playerScore[player] = score;\n  }\n\n  function updatePlayerScore(address player, uint score) public {\n    require(isRegistered(player) == true);\n    playerScore[player] = score;\n  }\n\n  function updatePlayerAchievements(address player, string achievement) public {\n    require(isRegistered(player) == true);\n    achievements[player].push(achievement);\n  }\n\n  function getScore(address player) public view returns (uint) {\n      return playerScore[player];\n  }\n\n  function getAchievements(address player) public view returns (string[]) {\n      return achievements[player];\n  }\n}",
  "sourcePath": "/Users/arjitkhullar/hackathon_911/ethereum/contracts/Game.sol",
  "compiler": {
    "name": "solc",
    "version": "0.4.24+commit.e67f0147.Emscripten.clang"
  },
  "schemaVersion": "2.0.1",
  "updatedAt": "2018-09-11T22:47:51.543Z"
}