{
  "contractName": "Game",
  "abi": [
    {
      "constant": true,
      "inputs": [],
      "name": "gameName",
      "outputs": [
        {
          "name": "",
          "type": "string"
        }
      ],
      "payable": false,
      "stateMutability": "view",
      "type": "function"
    },
    {
      "constant": true,
      "inputs": [
        {
          "name": "",
          "type": "address"
        }
      ],
      "name": "playerScore",
      "outputs": [
        {
          "name": "",
          "type": "uint256"
        }
      ],
      "payable": false,
      "stateMutability": "view",
      "type": "function"
    },
    {
      "constant": true,
      "inputs": [
        {
          "name": "",
          "type": "address"
        }
      ],
      "name": "registered",
      "outputs": [
        {
          "name": "",
          "type": "bool"
        }
      ],
      "payable": false,
      "stateMutability": "view",
      "type": "function"
    },
    {
      "constant": true,
      "inputs": [
        {
          "name": "",
          "type": "address"
        },
        {
          "name": "",
          "type": "uint256"
        }
      ],
      "name": "achievements",
      "outputs": [
        {
          "name": "",
          "type": "string"
        }
      ],
      "payable": false,
      "stateMutability": "view",
      "type": "function"
    },
    {
      "constant": true,
      "inputs": [
        {
          "name": "",
          "type": "uint256"
        }
      ],
      "name": "gameAchievements",
      "outputs": [
        {
          "name": "",
          "type": "string"
        }
      ],
      "payable": false,
      "stateMutability": "view",
      "type": "function"
    },
    {
      "inputs": [
        {
          "name": "name",
          "type": "string"
        },
        {
          "name": "achievements",
          "type": "string[]"
        }
      ],
      "payable": false,
      "stateMutability": "nonpayable",
      "type": "constructor"
    },
    {
      "constant": true,
      "inputs": [
        {
          "name": "player",
          "type": "address"
        }
      ],
      "name": "isRegistered",
      "outputs": [
        {
          "name": "",
          "type": "bool"
        }
      ],
      "payable": false,
      "stateMutability": "view",
      "type": "function"
    },
    {
      "constant": false,
      "inputs": [
        {
          "name": "player",
          "type": "address"
        }
      ],
      "name": "register",
      "outputs": [],
      "payable": false,
      "stateMutability": "nonpayable",
      "type": "function"
    },
    {
      "constant": false,
      "inputs": [
        {
          "name": "player",
          "type": "address"
        },
        {
          "name": "score",
          "type": "uint256"
        },
        {
          "name": "achievement",
          "type": "string"
        }
      ],
      "name": "finalisePlayerStatus",
      "outputs": [],
      "payable": false,
      "stateMutability": "nonpayable",
      "type": "function"
    },
    {
      "constant": false,
      "inputs": [
        {
          "name": "player",
          "type": "address"
        },
        {
          "name": "score",
          "type": "uint256"
        }
      ],
      "name": "updatePlayerScore",
      "outputs": [],
      "payable": false,
      "stateMutability": "nonpayable",
      "type": "function"
    },
    {
      "constant": false,
      "inputs": [
        {
          "name": "player",
          "type": "address"
        },
        {
          "name": "achievement",
          "type": "string"
        }
      ],
      "name": "updatePlayerAchievements",
      "outputs": [],
      "payable": false,
      "stateMutability": "nonpayable",
      "type": "function"
    },
    {
      "constant": true,
      "inputs": [
        {
          "name": "player",
          "type": "address"
        }
      ],
      "name": "getScore",
      "outputs": [
        {
          "name": "",
          "type": "uint256"
        }
      ],
      "payable": false,
      "stateMutability": "view",
      "type": "function"
    },
    {
      "constant": true,
      "inputs": [
        {
          "name": "player",
          "type": "address"
        }
      ],
      "name": "getAchievements",
      "outputs": [
        {
          "name": "",
          "type": "string[]"
        }
      ],
      "payable": false,
      "stateMutability": "view",
      "type": "function"
    }
  ],
  "bytecode": "0x60806040523480156200001157600080fd5b5060405162000fab38038062000fab8339810180604052620000379190810190620002ae565b81516200004c9060009060208501906200006b565b50805162000062906004906020840190620000f0565b505050620003bf565b828054600181600116156101000203166002900490600052602060002090601f016020900481019282601f10620000ae57805160ff1916838001178555620000de565b82800160010185558215620000de579182015b82811115620000de578251825591602001919060010190620000c1565b50620000ec92915062000150565b5090565b82805482825590600052602060002090810192821562000142579160200282015b82811115620001425782518051620001319184916020909101906200006b565b509160200191906001019062000111565b50620000ec92915062000170565b6200016d91905b80821115620000ec576000815560010162000157565b90565b6200016d91905b80821115620000ec5760006200018e828262000198565b5060010162000177565b50805460018160011615610100020316600290046000825580601f10620001c05750620001e0565b601f016020900490600052602060002090810190620001e0919062000150565b50565b6000601f82018313620001f557600080fd5b81516200020c620002068262000343565b6200031c565b81815260209384019390925082018360005b838110156200024e578151860162000237888262000258565b84525060209283019291909101906001016200021e565b5050505092915050565b6000601f820183136200026a57600080fd5b81516200027b620002068262000364565b915080825260208301602083018583830111156200029857600080fd5b620002a58382846200038c565b50505092915050565b60008060408385031215620002c257600080fd5b82516001604060020a03811115620002d957600080fd5b620002e78582860162000258565b92505060208301516001604060020a038111156200030457600080fd5b6200031285828601620001e3565b9150509250929050565b6040518181016001604060020a03811182821017156200033b57600080fd5b604052919050565b60006001604060020a038211156200035a57600080fd5b5060209081020190565b60006001604060020a038211156200037b57600080fd5b506020601f91909101601f19160190565b60005b83811015620003a95781810151838201526020016200038f565b83811115620003b9576000848401525b50505050565b610bdc80620003cf6000396000f3006080604052600436106100b95763ffffffff7c01000000000000000000000000000000000000000000000000000000006000350416634420e48681146100be578063473bc223146100e05780636f0d50f01461010b57806382b813dc1461012b5780638ef578f61461015857806393f5b241146101855780639a11ded0146101a5578063b2dd5c07146101c5578063bf882e73146101f2578063c3c5a54714610212578063d47875d014610232578063fa6983ae14610252575b600080fd5b3480156100ca57600080fd5b506100de6100d936600461088a565b610272565b005b3480156100ec57600080fd5b506100f56102d4565b6040516101029190610a8e565b60405180910390f35b34801561011757600080fd5b506100de6101263660046108b0565b610380565b34801561013757600080fd5b5061014b61014636600461088a565b6103e8565b6040516101029190610a9f565b34801561016457600080fd5b5061017861017336600461088a565b6103fa565b6040516101029190610a69565b34801561019157600080fd5b506100de6101a0366004610902565b610513565b3480156101b157600080fd5b506100de6101c0366004610932565b610553565b3480156101d157600080fd5b506101e56101e036600461088a565b6105e1565b6040516101029190610a7a565b3480156101fe57600080fd5b506100f561020d366004610902565b6105f6565b34801561021e57600080fd5b506101e561022d36600461088a565b610697565b34801561023e57600080fd5b5061014b61024d36600461088a565b6106c2565b34801561025e57600080fd5b506100f561026d366004610997565b6106ea565b61027b81610697565b1561028557600080fd5b73ffffffffffffffffffffffffffffffffffffffff16600090815260026020526040902080547fffffffffffffffffffffffffffffffffffffffffffffffffffffffffffffff00166001179055565b6000805460408051602060026001851615610100027fffffffffffffffffffffffffffffffffffffffffffffffffffffffffffffffff0190941693909304601f810184900484028201840190925281815292918301828280156103785780601f1061034d57610100808354040283529160200191610378565b820191906000526020600020905b81548152906001019060200180831161035b57829003601f168201915b505050505081565b61038982610697565b151560011461039757600080fd5b73ffffffffffffffffffffffffffffffffffffffff82166000908152600360209081526040822080546001810180835591845292829020845191936103e2939101919085019061077c565b50505050565b60016020526000908152604090205481565b73ffffffffffffffffffffffffffffffffffffffff81166000908152600360209081526040808320805482518185028101850190935280835260609492939192909184015b828210156105085760008481526020908190208301805460408051601f60027fffffffffffffffffffffffffffffffffffffffffffffffffffffffffffffffff6101006001871615020190941693909304928301859004850281018501909152818152928301828280156104f45780601f106104c9576101008083540402835291602001916104f4565b820191906000526020600020905b8154815290600101906020018083116104d757829003601f168201915b50505050508152602001906001019061043f565b505050509050919050565b61051c82610697565b151560011461052a57600080fd5b73ffffffffffffffffffffffffffffffffffffffff909116600090815260016020526040902055565b61055c83610697565b151560011461056a57600080fd5b73ffffffffffffffffffffffffffffffffffffffff83166000908152600360209081526040822080546001810180835591845292829020845191936105b5939101919085019061077c565b50505073ffffffffffffffffffffffffffffffffffffffff909116600090815260016020526040902055565b60026020526000908152604090205460ff1681565b60036020528160005260406000208181548110151561061157fe5b600091825260209182902001805460408051601f60027fffffffffffffffffffffffffffffffffffffffffffffffffffffffffffffffff61010060018716150201909416939093049283018590048502810185019091528181529450909250908301828280156103785780601f1061034d57610100808354040283529160200191610378565b73ffffffffffffffffffffffffffffffffffffffff1660009081526002602052604090205460ff1690565b73ffffffffffffffffffffffffffffffffffffffff1660009081526001602052604090205490565b60048054829081106106f857fe5b600091825260209182902001805460408051601f60027fffffffffffffffffffffffffffffffffffffffffffffffffffffffffffffffff6101006001871615020190941693909304928301859004850281018501909152818152935090918301828280156103785780601f1061034d57610100808354040283529160200191610378565b828054600181600116156101000203166002900490600052602060002090601f016020900481019282601f106107bd57805160ff19168380011785556107ea565b828001600101855582156107ea579182015b828111156107ea5782518255916020019190600101906107cf565b506107f69291506107fa565b5090565b61081491905b808211156107f65760008155600101610800565b90565b60006108238235610b29565b9392505050565b6000601f8201831361083b57600080fd5b813561084e61084982610ad4565b610aad565b9150808252602083016020830185838301111561086a57600080fd5b610875838284610b42565b50505092915050565b60006108238235610814565b60006020828403121561089c57600080fd5b60006108a88484610817565b949350505050565b600080604083850312156108c357600080fd5b60006108cf8585610817565b925050602083013567ffffffffffffffff8111156108ec57600080fd5b6108f88582860161082a565b9150509250929050565b6000806040838503121561091557600080fd5b60006109218585610817565b92505060206108f88582860161087e565b60008060006060848603121561094757600080fd5b60006109538686610817565b93505060206109648682870161087e565b925050604084013567ffffffffffffffff81111561098157600080fd5b61098d8682870161082a565b9150509250925092565b6000602082840312156109a957600080fd5b60006108a8848461087e565b60006109c082610b20565b808452602084019350836020820285016109d985610b1a565b60005b84811015610a105783830388526109f4838351610a2b565b92506109ff82610b1a565b6020989098019791506001016109dc565b50909695505050505050565b610a2581610b24565b82525050565b6000610a3682610b20565b808452610a4a816020860160208601610b4e565b610a5381610b7a565b9093016020019392505050565b610a2581610814565b6020808252810161082381846109b5565b60208101610a888284610a1c565b92915050565b602080825281016108238184610a2b565b60208101610a888284610a60565b60405181810167ffffffffffffffff81118282101715610acc57600080fd5b604052919050565b600067ffffffffffffffff821115610aeb57600080fd5b506020601f919091017fffffffffffffffffffffffffffffffffffffffffffffffffffffffffffffffe0160190565b60200190565b5190565b151590565b73ffffffffffffffffffffffffffffffffffffffff1690565b82818337506000910152565b60005b83811015610b69578181015183820152602001610b51565b838111156103e25750506000910152565b601f017fffffffffffffffffffffffffffffffffffffffffffffffffffffffffffffffe016905600a265627a7a72305820d87a80013feaa14f04bf4f9009e2e1fa9c48080db20d81af7cca0f3ace78cfd56c6578706572696d656e74616cf50037",
  "source": "// pragma solidity ^0.4.20;\npragma experimental ABIEncoderV2;\n\nimport \"./ERC721.sol\";\n\ncontract Game {\n\n  string public gameName;\n  mapping(address => uint) public playerScore;\n  mapping(address => bool) public registered;\n  mapping(address => string[]) public achievements;\n\n  string[] public gameAchievements;\n\n  constructor(string name, string[] achievements) public {\n    gameName = name;\n    gameAchievements = achievements;\n  }\n\n  function isRegistered(address player) public view returns (bool){\n    return registered[player];\n  }\n\n  function register(address player) public {\n    require(isRegistered(player) == false);\n    registered[player] = true;\n  }\n\n  function finalisePlayerStatus(address player, uint score, string achievement) public {\n    require(isRegistered(player) == true);\n    achievements[player].push(achievement);\n    playerScore[player] = score;\n  }\n\n  function updatePlayerScore(address player, uint score) public {\n    require(isRegistered(player) == true);\n    playerScore[player] = score;\n  }\n\n  function updatePlayerAchievements(address player, string achievement) public {\n    require(isRegistered(player) == true);\n    achievements[player].push(achievement);\n  }\n\n  function getScore(address player) public view returns (uint) {\n      return playerScore[player];\n  }\n\n  function getAchievements(address player) public view returns (string[]) {\n      return achievements[player];\n  }\n}",
  "sourcePath": "/Users/arjitkhullar/hackathon_911/ethereum/contracts/Game.sol",
  "compiler": {
    "name": "solc",
    "version": "0.4.24+commit.e67f0147.Emscripten.clang"
  },
  "schemaVersion": "2.0.1",
  "updatedAt": "2018-09-11T23:30:25.123Z"
}