{
  "contractName": "SharkShift",
  "abi": [
    {
      "constant": true,
      "inputs": [
        {
          "name": "",
          "type": "address"
        }
      ],
      "name": "players",
      "outputs": [
        {
          "name": "id",
          "type": "uint256"
        },
        {
          "name": "name",
          "type": "string"
        }
      ],
      "payable": false,
      "stateMutability": "view",
      "type": "function"
    },
    {
      "constant": true,
      "inputs": [],
      "name": "totalPlayers",
      "outputs": [
        {
          "name": "",
          "type": "uint256"
        }
      ],
      "payable": false,
      "stateMutability": "view",
      "type": "function"
    },
    {
      "inputs": [],
      "payable": false,
      "stateMutability": "nonpayable",
      "type": "constructor"
    },
    {
      "constant": false,
      "inputs": [
        {
          "name": "player",
          "type": "address"
        },
        {
          "name": "name",
          "type": "string"
        }
      ],
      "name": "addPlayer",
      "outputs": [],
      "payable": false,
      "stateMutability": "nonpayable",
      "type": "function"
    },
    {
      "constant": false,
      "inputs": [
        {
          "name": "game",
          "type": "address"
        },
        {
          "name": "player",
          "type": "address"
        }
      ],
      "name": "addGame",
      "outputs": [],
      "payable": false,
      "stateMutability": "nonpayable",
      "type": "function"
    },
    {
      "constant": true,
      "inputs": [
        {
          "name": "player",
          "type": "address"
        }
      ],
      "name": "getScore",
      "outputs": [
        {
          "name": "score",
          "type": "uint256"
        }
      ],
      "payable": false,
      "stateMutability": "view",
      "type": "function"
    }
  ],
  "bytecode": "0x608060405234801561001057600080fd5b5061067d806100206000396000f30060806040526004361061006c5763ffffffff7c01000000000000000000000000000000000000000000000000000000006000350416632c48a73d811461007157806339a79200146100e7578063d47875d01461011b578063e2eb41ff1461015b578063f60cdcf614610208575b600080fd5b34801561007d57600080fd5b5060408051602060046024803582810135601f81018590048502860185019096528585526100e595833573ffffffffffffffffffffffffffffffffffffffff1695369560449491939091019190819084018382808284375094975061021d9650505050505050565b005b3480156100f357600080fd5b506100e573ffffffffffffffffffffffffffffffffffffffff60043581169060243516610299565b34801561012757600080fd5b5061014973ffffffffffffffffffffffffffffffffffffffff60043516610300565b60408051918252519081900360200190f35b34801561016757600080fd5b5061018973ffffffffffffffffffffffffffffffffffffffff6004351661040a565b6040518083815260200180602001828103825283818151815260200191508051906020019080838360005b838110156101cc5781810151838201526020016101b4565b50505050905090810190601f1680156101f95780820380516001836020036101000a031916815260200191505b50935050505060405180910390f35b34801561021457600080fd5b506101496104cc565b6102256104d2565b6001805480820182558252602080830184815273ffffffffffffffffffffffffffffffffffffffff86166000908152808352604090208451815590518051859492936102759385019201906104f4565b5060408201518051610291916002840191602090910190610572565b505050505050565b73ffffffffffffffffffffffffffffffffffffffff9081166000908152602081815260408220600201805460018101825590835291200180547fffffffffffffffffffffffff00000000000000000000000000000000000000001692909116919091179055565b73ffffffffffffffffffffffffffffffffffffffff8116600090815260208190526040812081805b6002830154821015610402576002830180548390811061034457fe5b6000918252602080832090910154604080517fd47875d000000000000000000000000000000000000000000000000000000000815273ffffffffffffffffffffffffffffffffffffffff8a811660048301529151919092169450849363d47875d093602480850194919392918390030190829087803b1580156103c657600080fd5b505af11580156103da573d6000803e3d6000fd5b505050506040513d60208110156103f057600080fd5b50519390930192600190910190610328565b505050919050565b600060208181529181526040908190208054600180830180548551600293821615610100027fffffffffffffffffffffffffffffffffffffffffffffffffffffffffffffffff0190911692909204601f81018790048702830187019095528482529194929390928301828280156104c25780601f10610497576101008083540402835291602001916104c2565b820191906000526020600020905b8154815290600101906020018083116104a557829003601f168201915b5050505050905082565b60015481565b6060604051908101604052806000815260200160608152602001606081525090565b828054600181600116156101000203166002900490600052602060002090601f016020900481019282601f1061053557805160ff1916838001178555610562565b82800160010185558215610562579182015b82811115610562578251825591602001919060010190610547565b5061056e9291506105f8565b5090565b8280548282559060005260206000209081019282156105ec579160200282015b828111156105ec57825182547fffffffffffffffffffffffff00000000000000000000000000000000000000001673ffffffffffffffffffffffffffffffffffffffff909116178255602090920191600190910190610592565b5061056e929150610615565b61061291905b8082111561056e57600081556001016105fe565b90565b61061291905b8082111561056e5780547fffffffffffffffffffffffff000000000000000000000000000000000000000016815560010161061b5600a165627a7a72305820a589ed988cb93f8dd12554978e4d0c878b5135971badbc2cd9c8f74acb9b20860029",
  "source": "pragma solidity ^0.4.20;\n\nimport \"./Game.sol\";\n\ncontract SharkShift {\n\n    struct Player {\n        uint id;\n        string name;\n        address[] games;\n    }\n\n    // mapping(address => Score) scoreOf;\n    // Player[] public players;\n    mapping(address => Player) public players;\n    uint public totalPlayers;\n\n    constructor() public {\n\n    }\n\n    function addPlayer(address player, string name) public {\n        Player memory p;\n        p.id = totalPlayers++;\n        p.name = name;\n        players[player] = p;\n    }\n\n    function addGame(address game, address player) public {\n        players[player].games.push(game);\n    }\n\n    function getScore(address player) public view returns(uint score) {\n        Player storage p = players[player];\n        \n        for(uint i = 0; i < p.games.length; i++) {\n            Game g = Game(p.games[i]);\n            score += g.getScore(player);\n        }\n    }\n\n}\n",
  "sourcePath": "/home/tomisin/Documents/projects/Hackathons/Shyft/sharkshift/ethereum/contracts/SharkShift.sol",
  "compiler": {
    "name": "solc",
    "version": "0.4.24+commit.e67f0147.Emscripten.clang"
  },
  "schemaVersion": "2.0.1",
  "updatedAt": "2018-09-11T20:44:28.214Z"
}