{
  "contractName": "SharkShift",
  "abi": [
    {
      "constant": true,
      "inputs": [
        {
          "name": "",
          "type": "address"
        }
      ],
      "name": "players",
      "outputs": [
        {
          "name": "id",
          "type": "uint256"
        },
        {
          "name": "name",
          "type": "string"
        }
      ],
      "payable": false,
      "stateMutability": "view",
      "type": "function"
    },
    {
      "constant": true,
      "inputs": [],
      "name": "totalPlayers",
      "outputs": [
        {
          "name": "",
          "type": "uint256"
        }
      ],
      "payable": false,
      "stateMutability": "view",
      "type": "function"
    },
    {
      "inputs": [],
      "payable": false,
      "stateMutability": "nonpayable",
      "type": "constructor"
    },
    {
      "constant": false,
      "inputs": [
        {
          "name": "player",
          "type": "address"
        },
        {
          "name": "name",
          "type": "string"
        }
      ],
      "name": "addPlayer",
      "outputs": [],
      "payable": false,
      "stateMutability": "nonpayable",
      "type": "function"
    },
    {
      "constant": false,
      "inputs": [
        {
          "name": "game",
          "type": "address"
        },
        {
          "name": "player",
          "type": "address"
        }
      ],
      "name": "addGame",
      "outputs": [],
      "payable": false,
      "stateMutability": "nonpayable",
      "type": "function"
    },
    {
      "constant": false,
      "inputs": [
        {
          "name": "player",
          "type": "address"
        }
      ],
      "name": "getGames",
      "outputs": [
        {
          "name": "",
          "type": "address[]"
        }
      ],
      "payable": false,
      "stateMutability": "nonpayable",
      "type": "function"
    },
    {
      "constant": true,
      "inputs": [
        {
          "name": "player",
          "type": "address"
        }
      ],
      "name": "getScore",
      "outputs": [
        {
          "name": "score",
          "type": "uint256"
        }
      ],
      "payable": false,
      "stateMutability": "view",
      "type": "function"
    }
  ],
  "bytecode": "0x608060405234801561001057600080fd5b50610797806100206000396000f3006080604052600436106100775763ffffffff7c01000000000000000000000000000000000000000000000000000000006000350416632c48a73d811461007c57806339a79200146100f25780636632efbb14610126578063d47875d0146101a4578063e2eb41ff146101e4578063f60cdcf614610291575b600080fd5b34801561008857600080fd5b5060408051602060046024803582810135601f81018590048502860185019096528585526100f095833573ffffffffffffffffffffffffffffffffffffffff169536956044949193909101919081908401838280828437509497506102a69650505050505050565b005b3480156100fe57600080fd5b506100f073ffffffffffffffffffffffffffffffffffffffff60043581169060243516610322565b34801561013257600080fd5b5061015473ffffffffffffffffffffffffffffffffffffffff60043516610389565b60408051602080825283518183015283519192839290830191858101910280838360005b83811015610190578181015183820152602001610178565b505050509050019250505060405180910390f35b3480156101b057600080fd5b506101d273ffffffffffffffffffffffffffffffffffffffff6004351661041a565b60408051918252519081900360200190f35b3480156101f057600080fd5b5061021273ffffffffffffffffffffffffffffffffffffffff60043516610524565b6040518083815260200180602001828103825283818151815260200191508051906020019080838360005b8381101561025557818101518382015260200161023d565b50505050905090810190601f1680156102825780820380516001836020036101000a031916815260200191505b50935050505060405180910390f35b34801561029d57600080fd5b506101d26105e6565b6102ae6105ec565b6001805480820182558252602080830184815273ffffffffffffffffffffffffffffffffffffffff86166000908152808352604090208451815590518051859492936102fe93850192019061060e565b506040820151805161031a91600284019160209091019061068c565b505050505050565b73ffffffffffffffffffffffffffffffffffffffff9081166000908152602081815260408220600201805460018101825590835291200180547fffffffffffffffffffffffff00000000000000000000000000000000000000001692909116919091179055565b73ffffffffffffffffffffffffffffffffffffffff81166000908152602081815260409182902060020180548351818402810184019094528084526060939283018282801561040e57602002820191906000526020600020905b815473ffffffffffffffffffffffffffffffffffffffff1681526001909101906020018083116103e3575b50505050509050919050565b73ffffffffffffffffffffffffffffffffffffffff8116600090815260208190526040812081805b600283015482101561051c576002830180548390811061045e57fe5b6000918252602080832090910154604080517fd47875d000000000000000000000000000000000000000000000000000000000815273ffffffffffffffffffffffffffffffffffffffff8a811660048301529151919092169450849363d47875d093602480850194919392918390030190829087803b1580156104e057600080fd5b505af11580156104f4573d6000803e3d6000fd5b505050506040513d602081101561050a57600080fd5b50519390930192600190910190610442565b505050919050565b600060208181529181526040908190208054600180830180548551600293821615610100027fffffffffffffffffffffffffffffffffffffffffffffffffffffffffffffffff0190911692909204601f81018790048702830187019095528482529194929390928301828280156105dc5780601f106105b1576101008083540402835291602001916105dc565b820191906000526020600020905b8154815290600101906020018083116105bf57829003601f168201915b5050505050905082565b60015481565b6060604051908101604052806000815260200160608152602001606081525090565b828054600181600116156101000203166002900490600052602060002090601f016020900481019282601f1061064f57805160ff191683800117855561067c565b8280016001018555821561067c579182015b8281111561067c578251825591602001919060010190610661565b50610688929150610712565b5090565b828054828255906000526020600020908101928215610706579160200282015b8281111561070657825182547fffffffffffffffffffffffff00000000000000000000000000000000000000001673ffffffffffffffffffffffffffffffffffffffff9091161782556020909201916001909101906106ac565b5061068892915061072f565b61072c91905b808211156106885760008155600101610718565b90565b61072c91905b808211156106885780547fffffffffffffffffffffffff00000000000000000000000000000000000000001681556001016107355600a165627a7a72305820361d245fe4e431181cbc6c9be11c92e211775f8a962221b8fd1501433c94fb850029",
  "source": "pragma solidity ^0.4.20;\n\nimport \"./Game.sol\";\n\ncontract SharkShift {\n\n    struct Player {\n        uint id;\n        string name;\n        address[] games;\n    }\n\n    // mapping(address => Score) scoreOf;\n    // Player[] public players;\n    mapping(address => Player) public players;\n    uint public totalPlayers;\n\n    constructor() public {\n\n    }\n\n    function addPlayer(address player, string name) public {\n        Player memory p;\n        p.id = totalPlayers++;\n        p.name = name;\n        players[player] = p;\n    }\n\n    function addGame(address game, address player) public {\n        players[player].games.push(game);\n    }\n\n    function getGames(address player) public returns(address[]) {\n        return players[player].games;\n    }\n\n    function getScore(address player) public view returns(uint score) {\n        Player storage p = players[player];\n        \n        for(uint i = 0; i < p.games.length; i++) {\n            Game g = Game(p.games[i]);\n            score += g.getScore(player);\n        }\n    }\n\n}\n",
  "sourcePath": "/Users/arjitkhullar/hackathon_911/ethereum/contracts/SharkShift.sol",
  "compiler": {
    "name": "solc",
    "version": "0.4.24+commit.e67f0147.Emscripten.clang"
  },
  "schemaVersion": "2.0.1",
  "updatedAt": "2018-09-11T23:36:40.732Z"
}